:100000000C94E8000C9405010C9405010C94050176
:100010000C9405010C9405010C9405010C94050148
:100020000C9405010C9405010C9405010C94050138
:100030000C9405010C9405010C9405010C94050128
:100040000C9405010C9405010C9405010C94050118
:100050000C94050107634236B79BD8A71A39685636
:1000600018AEBAAB558C1D3CB7CC5763BD6DEDFDDA
:10007000753EF6177231BF000000803F0800000097
:10008000BE922449123EABAAAA2ABECDCCCC4C3E8D
:1000900000000080BEABAAAAAA3E00000000BF007C
:1000A0000000803F0000000000084178D3BB438778
:1000B000D1133D190E3CC3BD4282AD2B3E68EC828C
:1000C00076BED98FE1A93E4C80EFFFBE01C4FF7F11
:1000D0003F000000000000407A10F35A00A0724E6A
:1000E00018090010A5D4E80000E87648170000E4DD
:1000F0000B54020000CA9A3B000000E1F505000025
:1001000080969800000040420F000000A086010089
:100110000000102700000000E80300000000640059
:10012000000000000A0000000000010000000000C4
:100130002C76D888DC674F0823DFC1DFAE59E1B1E8
:10014000B796E5E3E453C63AE651997696E8E6C2F7
:100150008426EB898C9B62ED407C6FFCEFBC9C9FFE
:1001600040F2BAA56FA5F490055A2AF75C936B6C20
:10017000F9676DC11BFCE0E40D47FEF520E6B50014
:10018000D0ED902E0300943577050080841E080082
:1001900000204E0A000000C80C333333330F986E32
:1001A00012831141EF8D2114893BE65516CFFEE6EF
:1001B000DB18D1844B381BF77C1D901DA4BBE424B5
:1001C000203284725E228100C9F124ECA1E53D2732
:1001D00011241FBECFE5D8E0DEBFCDBF10E0A0E602
:1001E000B0E0EEE9FAE102C005900D92A438B10743
:1001F000D9F710E0A4E8B0E001C01D92A03AB10721
:10020000E1F70E9429030C94E9040C94000081306A
:10021000910511F480EA0BC08230910511F481EA56
:1002200006C0039719F020E030E00BC082EA87B9DE
:1002300080E487B985E886B9369A369BFECF24B12B
:1002400035B1C9010895982F84EA86BF06B607FE26
:10025000FDCF81B1887F883011F080E00895990F3B
:1002600093B984E886BF06B607FEFDCF81B1887FCB
:10027000883111F481E00895803211F083E008950F
:1002800082E00895982F84EA86BF06B607FEFDCF68
:1002900081B1887F803111F080E0089593B984E8BE
:1002A00086BF06B607FEFDCF81B1887F803411F48A
:1002B00081E00895803211F083E0089582E008958E
:1002C00084E986BF06B604FCFDCF0895982F44EA62
:1002D00034E824E946BF06B607FEFDCF81B1887F2A
:1002E0008830C1F793B936BF06B607FEFDCF81B19E
:1002F000887F883129F026BF06B604FCFDCFEACFFF
:10030000089583B984E886BF06B607FEFDCF81B1A4
:10031000887F883211F480E00895803311F082E004
:10032000089581E0089584EC86BF06B607FEFDCFF0
:1003300083B1089584E886BF06B607FEFDCF83B17A
:1003400008958CE792E90197F1F780ED0E9466012C
:1003500089E10E94810187E00E94810184E986BFD2
:1003600006B604FCFDCF80ED0E9466018BE60E947C
:10037000810181E00E94810184E986BF06B604FC08
:10038000FDCF80ED0E9466018AE10E94810180E03C
:100390000E94810184E986BF06B604FCFDCF80ED92
:1003A0000E9466018BE10E94810188E10E94810127
:1003B00084E986BF06B604FCFDCF80ED0E9466018D
:1003C00088E30E94810181E00E94810184E986BF67
:1003D00006B604FCFDCF089580ED0E9466018BE314
:1003E0000E94810181ED0E94420108950E94EC016A
:1003F00084EC86BF06B607FEFDCF93B184EC86BFC2
:1004000006B607FEFDCF23B1792F60E030E0622B06
:10041000732B882777FD8095982F0E940B06609399
:1004200098007093990080939A0090939B0084ECBD
:1004300086BF06B607FEFDCF93B184EC86BF06B635
:1004400007FEFDCF23B1792F60E030E0622B732BE4
:10045000882777FD8095982F0E940B066093900067
:1004600070939100809392009093930084EC86BFE8
:1004700006B607FEFDCF93B184EC86BF06B607FE35
:10048000FDCF23B1792F60E030E0622B732B8827FA
:1004900077FD8095982F0E940B06609384007093DF
:1004A0008500809386009093870084EC86BF06B613
:1004B00007FEFDCF93B184EC86BF06B607FEFDCFE5
:1004C00023B1792F60E030E0622B732B882777FD12
:1004D0008095982F0E940B0660938C0070938D007E
:1004E00080938E0090938F0084EC86BF06B607FE43
:1004F000FDCF93B184EC86BF06B607FEFDCF23B1D6
:10050000792F60E030E0622B732B882777FD809590
:10051000982F0E940B066093880070938900809347
:100520008A0090938B0084EC86BF06B607FEFDCF51
:1005300093B184EC86BF06B607FEFDCF23B1792FB9
:1005400060E030E0622B732B882777FD8095982F31
:100550000E940B0660939C0070939D0080939E0008
:1005600090939F0084EC86BF06B607FEFDCF93B143
:1005700084E886BF06B607FEFDCF23B1792F60E081
:1005800030E0622B732B882777FD8095982F0E948F
:100590000B0660939400709395008093960090935F
:1005A000970084E986BF06B604FCFDCF08955F9BE3
:1005B000FECF8CB108955D9BFECF8CB90895FC01F0
:1005C00004C05D9BFECF8CB9319680818823C9F72A
:1005D000089501C08CB15F99FDCF089590BD89B990
:1005E000599A88E18AB98EE880BD08958CE090E040
:1005F0000E94EE0208958EB582608EBD1DBC1CBCAB
:1006000084E089BF7894089511B861B170E0637097
:100610007070882777FD8095982F0E940B069B01AC
:10062000AC0160E070E080E890E40E94FA069B0173
:10063000AC01CA01B9010E9411059B01AC0160E047
:1006400070E080E89FE40E9475050E94DD0560B9B6
:1006500008952F923F924F925F928F929F92AF9206
:10066000BF92CF92DF92EF92FF920F931F93DF938F
:10067000CF93CDB7DEB7AA970FB6F894DEBF0FBE03
:10068000CDBF0E94F6020E9404030E94A10100D087
:1006900000D000D0EDB7FEB731968BE0E82EF12CFC
:1006A000EC0EFD1EADB7BEB71296FC92EE921197FE
:1006B00080E690E0938382838E010F5F1F4F158346
:1006C00004830E94EC048DB79EB706960FB6F8948B
:1006D0009EBF0FBE8DBFC7010E94DF02502E412E6C
:1006E00017010E94F6016091900070919100809135
:1006F00092009091930020E030E040E858E30E949F
:1007000097066B017C016091840070918500809157
:1007100086009091870020E030E040E858E30E9496
:1007200097064B015C01609188007091890080916F
:100730008A0090918B0023E333E343E851E40E9465
:1007400075056F8F78A389A39AA360919C0070911F
:100750009D0080919E0090919F0023E333E343E846
:1007600051E40E9475056BA37CA38DA39EA36091A9
:10077000940070919500809196009091970023E3EA
:1007800033E343E851E40E9475056FA378A789A776
:100790009AA7609198007091990080919A00909129
:1007A0009B0020E030E040E858E30E94970643E0D9
:1007B00022E0052D142D0E94C80400D000D000D0E6
:1007C000EDB7FEB73196ADB7BEB711962C92119723
:1007D00012963C9284E790E0938382835482458210
:1007E0000E94EC04ADB7BEB716960FB6F894BEBF24
:1007F0000FBEADBFC1010E94DF02B601C70143E0D9
:1008000022E00E94C80400D000D000D0EDB7FEB7AF
:100810003196ADB7BEB711962C92119712963C92B5
:1008200089E790E093838283548245820E94EC049E
:10083000ADB7BEB716960FB6F894BEBF0FBEADBF2C
:10084000C1010E94DF02B401C50143E022E00E9421
:10085000C80400D000D000D0EDB7FEB73196ADB7D8
:10086000BEB711962C92119712963C9289E790E0B0
:1008700093838283548245820E94EC04ADB7BEB755
:1008800016960FB6F894BEBF0FBEADBFC1010E9451
:10089000DF022F8D38A149A15AA1B901CA0143E055
:1008A00022E00E94C80400D000D000D0EDB7FEB70F
:1008B0003196ADB7BEB711962C92119712963C9215
:1008C00089E790E093838283548245820E94EC04FE
:1008D000ADB7BEB716960FB6F894BEBF0FBEADBF8C
:1008E000C1010E94DF022BA13CA14DA15EA1B90173
:1008F000CA0143E022E00E94C80400D000D000D02A
:10090000EDB7FEB73196ADB7BEB711962C921197E1
:1009100012963C9289E790E09383828354824582C9
:100920000E94EC04ADB7BEB716960FB6F894BEBFE2
:100930000FBEADBFC1010E94DF022FA138A549A59E
:100940005AA5B901CA0143E022E00E94C80400D0C0
:1009500000D000D0EDB7FEB73196ADB7BEB7119657
:100960002C92119712963C928FE790E093838283AA
:10097000548245820E94EC04ADB7BEB716960FB6FE
:10098000F894BEBF0FBEADBFC1010E94DF02A9CE69
:10099000EF92FF920F931F93F22FF02E47FD02C0AC
:1009A000E4E001C0E4E1242F332727FD309537FF31
:1009B00003C0309521953F4F4F2D512F0F2FEE2E15
:1009C0000E9423098F2D912F1F910F91FF90EF907F
:1009D0000895F8940C944D0DAEE0B0E0E2EFF4E031
:1009E0000C94240D0D891E8986E08C831A8309835B
:1009F0008FEF9FE79E838D839E01275E3F4FCE0141
:100A000001966F89788DA9010E9446072F8138854C
:100A1000020F131FF80110822E96E4E00C94400D93
:100A20005058BB27AA270ED048C139D130F03ED14B
:100A300020F031F49F3F11F41EF42EC10EF4E09526
:100A4000E7FB24C1E92F4AD180F3BA176207730785
:100A50008407950718F071F49EF562C10EF4E095D5
:100A60000B2EBA2FA02D0B01B90190010C01CA0168
:100A7000A0011124FF27591B99F0593F50F4503E13
:100A800068F11A16F040A22F232F342F4427585F05
:100A9000F3CF469537952795A795F0405395C9F71D
:100AA0007EF41F16BA0B620B730B840BBAF09150D5
:100AB000A1F0FF0FBB1F661F771F881FC2F70EC074
:100AC000BA0F621F731F841F48F487957795679547
:100AD000B795F7959E3F08F0B3CF9395880F08F030
:100AE0009927EE0F9795879508950CD0E6C0DED034
:100AF00040F0D5D030F021F45F3F19F0C7C051115C
:100B000010C1CAC0EBD098F39923C9F35523B1F3B0
:100B1000951B550BBB27AA2762177307840738F06C
:100B20009F5F5F4F220F331F441FAA1FA9F333D0CB
:100B30000E2E3AF0E0E830D091505040E695001C7F
:100B4000CAF729D0FE2F27D0660F771F881FBB1F3B
:100B5000261737074807AB07B0E809F0BB0B802D15
:100B6000BF01FF2793585F4F2AF09E3F510568F061
:100B70008DC0D7C05F3FECF3983EDCF38695779548
:100B80006795B795F7959F5FC9F7880F911D969563
:100B9000879597F90895E1E0660F771F881FBB1FBF
:100BA000621773078407BA0720F0621B730B840B6C
:100BB000BA0BEE1F88F7E095089598D088F09F57FC
:100BC00090F0B92F9927B751A0F0D1F0660F771F99
:100BD000881F991F1AF0BA95C9F712C0B13081F079
:100BE0009FD0B1E008959CC0672F782F8827B85F09
:100BF00039F0B93FCCF3869577956795B395D9F7DA
:100C00003EF490958095709561957F4F8F4F9F4FE3
:100C10000895E89409C097FB3EF4909580957095EF
:100C200061957F4F8F4F9F4F9923A9F0F92F96E938
:100C3000BB279395F695879577956795B795F111AD
:100C4000F8CFFAF4BB0F11F460FF1BC06F5F7F4F4A
:100C50008F4F9F4F16C0882311F096E911C077235C
:100C600021F09EE8872F762F05C0662371F096E865
:100C7000862F70E060E02AF09A95660F771F881F34
:100C8000DAF7880F9695879597F9089597F99F67F2
:100C900080E870E060E008959FEF80EC0895002404
:100CA0000A941616170618060906089500240A94D1
:100CB00012161306140605060895092E0394000C57
:100CC00011F4882352F0BB0F40F4BF2B11F460FFE6
:100CD00004C06F5F7F4F8F4F9F4F089557FD90580F
:100CE000440F551F59F05F3F71F04795880F97FBF0
:100CF000991F61F09F3F79F08795089512161306AA
:100D00001406551FF2CF4695F1DF08C016161706D8
:100D10001806991FF1CF869571056105089408950D
:100D2000E894BB2766277727CB0197F908950BD066
:100D3000C4CFB5DF28F0BADF18F0952309F0A6CFAD
:100D4000ABCF1124EECFCADFA0F3959FD1F3950F5F
:100D500050E0551F629FF001729FBB27F00DB11D3F
:100D6000639FAA27F00DB11DAA1F649F6627B00DCF
:100D7000A11D661F829F2227B00DA11D621F739FB8
:100D8000B00DA11D621F839FA00D611D221F749FC6
:100D90003327A00D611D231F849F600D211D822F0D
:100DA000762F6A2F11249F5750408AF0E1F0882354
:100DB0004AF0EE0FFF1FBB1F661F771F881F915061
:100DC0005040A9F79E3F510570F060CFAACF5F3F1A
:100DD000ECF3983EDCF3869577956795B795F79594
:100DE000E7959F5FC1F7FE2B880F911D969587951C
:100DF00097F90895FA01EE0FFF1F3096210531058E
:100E000099F16115710561F48038BFE39B0749F1E1
:100E100068949038810561F08038BFEF9B0741F0FE
:100E2000992342F5FF3FE1053105210511F1E894D1
:100E30000894E795D901AA2329F4AB2FBE2FF85FB8
:100E4000D0F310C0FF5F70F4A695E0F7F73950F0CB
:100E500019F0FF3A38F49F779F930CD00F9007FC5E
:100E6000905808953EF018CF60E070E080E89FE36E
:100E700008954FE79F775F934F933F932F9355D5F7
:100E80002F913F914F915F9152DFBCC4ABE0B0E036
:100E9000ECE4F7E00C94160D3C012B015A01FC0127
:100EA00017821682838181FD03C06FEF7FEFC6C179
:100EB0009AE0892E1E010894211C311CF301238124
:100EC000F20123FD859123FF81912F01882309F4ED
:100ED000B2C1853239F423FD859123FF81912F0121
:100EE000853229F490E0B3010E94730BE7CF982F6D
:100EF000FF24EE249924FFE1FF15D0F09B3269F026
:100F00009C3228F4903259F0933291F40EC09D3205
:100F100049F0903369F441E024C052E0F52A84E0BE
:100F2000F82A28C098E0F92A25C0E0E1FE2A22C06C
:100F3000F7FC29C0892F80538A3070F4F6FE05C073
:100F4000989C902C1124980E15C0E89CE02C11243C
:100F5000E80EF0E2FF2A0EC09E3229F4F6FC6BC1C7
:100F600040E4F42A07C09C3619F450E8F52A02C080
:100F7000983649F4F20123FD959123FF91912F01B9
:100F8000992309F0B8CF892F8554833018F0805207
:100F9000833038F444E050E0A40EB51E5FE359837B
:100FA0000FC0933631F0933779F0933509F056C07E
:100FB00020C0F5018081898342E050E0A40EB51E77
:100FC000610101E010E012C0F501C080D180F6FCA3
:100FD00003C06FEF7FEF02C0692D70E042E050E088
:100FE000A40EB51EC6010E94680B8C015FE7F522B6
:100FF00014C0F501C080D180F6FC03C06FEF7FEF15
:1010000002C0692D70E042E050E0A40EB51EC6019A
:101010000E945D0B8C0150E8F52AF3FE07C01AC050
:1010200080E290E0B3010E94730BEA948E2D90E071
:1010300008171907A8F30EC0F601F7FC8591F7FE13
:1010400081916F0190E0B3010E94730BE110EA946B
:10105000015010400115110579F7EAC0943611F0DE
:10106000993669F5F7FE08C0F5012081318142818A
:10107000538184E090E00AC0F501808191819C0158
:10108000442737FD4095542F82E090E0A80EB91E0A
:101090009FE6F92257FF09C050954095309521955C
:1010A0003F4F4F4F5F4FE0E8FE2ACA01B901A1014F
:1010B0002AE030E00E949F0BD82ED21840C095370E
:1010C00029F41F2D1F7E2AE030E01DC01F2D197F3F
:1010D0009F3661F0903720F4983509F0ACC00FC00E
:1010E000903739F0983709F0A6C004C028E030E006
:1010F0000AC0106114FD146020E130E004C014FD4A
:10110000166020E132E017FF08C0F50160817181AF
:101110008281938144E050E008C0F5018081918193
:10112000BC0180E090E042E050E0A40EB51EA101B9
:101130000E949F0BD82ED2188FE7F82EF122F6FED0
:101140000BC05EEFF522D91438F4F4FE07C0F2FCB0
:1011500005C08FEEF82202C01D2D01C0192DF4FE2E
:101160000DC0FE01ED0DF11D8081803319F499EE63
:10117000F92208C01F5FF2FE05C003C08F2D8678DC
:1011800009F01F5F0F2DF3FC14C0F0FE0FC01E15F9
:1011900010F09D2C0BC09D2C9E0C911A1E2D06C08C
:1011A00080E290E0B3010E94730B1F5F1E15C0F335
:1011B00004C01E1510F4E11A01C0EE2404FF0FC094
:1011C00080E390E0B3010E94730B02FF1DC001FD9C
:1011D00003C088E790E00EC088E590E00BC0802F48
:1011E000867891F001FF02C08BE201C080E2F7FC3B
:1011F0008DE290E0B3010E94730B06C080E390E0A3
:10120000B3010E94730B9A94D914C0F3DA94F101DC
:10121000ED0DF11D808190E0B3010E94730BDD2084
:10122000A9F706C080E290E0B3010E94730BEA9434
:10123000EE20C1F743CEF30166817781CB012B9677
:10124000E2E10C94320DA9E0B0E0E9E2F9E00C949F
:101250001A0D6A01122FA02EBE2C2BE3201718F4B2
:101260002CE3922E02C0902E9394AE014F5F5F4FFD
:1012700027E0092D0E94850ABC018981E82EFF2400
:10128000C70189709070019711F4ADE209C0B1FEF9
:1012900002C0ABE205C0B0FC02C0A0E001C0A0E209
:1012A000E3FE3BC0AA2311F423E001C024E0211790
:1012B00010F020E002C0121B212FEB2CB4FE02C064
:1012C000322F0AC0F601322F80E202C081933150E2
:1012D0003323E1F7C20ED11CAA2319F0F601A19322
:1012E0006F01F6013196E2FE05C09EE4D6019C93A3
:1012F00081E404C09EE6D6019C9381E611968C930E
:1013000091833296DF01832F90E202C09D9381503A
:101310008823E1F7E30FF11D40C0E2FE42C0AA239B
:1013200011F423E001C024E0211710F020E002C0F6
:10133000121B212FEB2CB4FE02C0922F0AC0F60123
:10134000922F80E202C0819391509923E1F7C20E5F
:10135000D11CAA2319F0F601A1936F01F601319671
:10136000E2FE08C089E4D6018C938EE411968C933A
:1013700086E407C089E6D6018C938EE611968C939D
:1013800086E681833296DF01892F20E202C02D9309
:1013900081508823E1F7E90FF11D10822EEF3FEF16
:1013A000AFC0161617061CF041E050E003C0AB01B9
:1013B0004F5F5F4FAA2019F480E090E003C08A2DB0
:1013C00090E0019620E030E0AA2311F021E030E027
:1013D000240F351F280F391F812F90E02817390758
:1013E00014F020E002C0121B212F4B2D50E0CA0147
:1013F00080719070B4FC0DC0B3FC0BC0F601322FAD
:1014000040E202C0419331503323E1F7C20ED11CB8
:1014100001C0322FAA2319F0F601A1936F01892B85
:1014200011F0132F0AC0F601132F80E302C081933D
:1014300011501123E1F7C30ED11C092D060FBA80FC
:1014400090E1892E912C8E209F20E4FE04C0F1E3D0
:10145000BF1609F40150101614F001E003C0093062
:1014600008F008E09B0177FF02C020E030E0CB01EC
:101470000196821B930BFE013196E80FF91F8EE255
:10148000F82E3B01601A71088A2D90E044275527F9
:10149000481B590B8FEF2F3F380719F4D601FD92E7
:1014A0006D01621773072CF06216730614F48081C5
:1014B00001C080E32150304031962417350724F0D5
:1014C000D6018D936D01E6CF2617370749F4B5E3B2
:1014D000BB1528F0BB1621F48114910409F481E3B3
:1014E000F6018193D601812F90E202C09C93815036
:1014F00011968823D9F7E10FF11D108220E030E02A
:10150000C9012996EEE00C94360D283008F027E04A
:101510003327DA01990F311D87FD9160009661052F
:10152000710539F432602E5F3D9330E32A95E1F77F
:1015300008959F3F30F080387105610509F03C5FE8
:101540003C5F3D93913008F08068911DDF93CF930D
:101550001F930F93FF92EF92192F987F9695E92F83
:1015600096959695E90FFF27E05DFE4F9927332763
:10157000EE24FF24A701E70105900894079428F4BE
:10158000360FE71EF81E491F511D660F771F881F73
:10159000991F0694A1F70590079428F4E70EF81E0A
:1015A000491F561FC11D770F881F991F661F06947C
:1015B000A1F70590079428F4F80E491F561FC71F7E
:1015C000D11D880F991F661F771F0694A1F70590FC
:1015D000079420F4490F561FC71FD81F990F661F85
:1015E000771F881F0694A9F784911095177041F012
:1015F000D695C79557954795F794E7941A95C1F7EF
:10160000E6EDF0E06894159015913591659195910E
:1016100005907FE27395E118F10A430B560BC90B55
:10162000D009C0F7E10CF11E431F561FC91FD01D82
:101630007EF4703311F48A95E6CFE894015030F0CF
:10164000080F0AF40027021708F4202F2395022F11
:101650007A3328F079E37D932A95E9F710C07D93DA
:101660002A9589F606949795679537951795179457
:10167000E118F10A430B560BC90BD00998F02395DA
:101680007E9173957A3308F070E37C932013B8F75A
:101690007E9170617D9330F0839571E37D9370E36B
:1016A0002A95E1F71124EF90FF900F911F91CF91B0
:1016B000DF91992787FD90950895FC010590615071
:1016C00070400110D8F7809590958E0F9F1F089558
:1016D000FC016150704001900110D8F78095909501
:1016E0008E0F9F1F08950F931F93CF93DF938C014D
:1016F000EB018B8181FF1BC082FF0DC02E813F81DA
:101700008C819D812817390764F4E881F981019360
:10171000F983E88306C0E885F985802F0995892B30
:1017200031F48E819F8101969F838E8302C00FEFDB
:101730001FEFC801DF91CF911F910F910895FA011A
:10174000AA27283051F1203181F1E8946F936E7F00
:101750006E5F7F4F8F4F9F4FAF4FB1E03ED0B4E0F1
:101760003CD0670F781F891F9A1FA11D680F791F32
:101770008A1F911DA11D6A0F711D811D911DA11D43
:1017800020D009F468943F912AE0269F1124301953
:10179000305D3193DEF6CF010895462F4770405DEE
:1017A0004193B3E00FD0C9F7F6CF462F4F70405D9D
:1017B0004A3318F0495D31FD4052419302D0A9F7F8
:1017C000EACFB4E0A6959795879577956795BA95F2
:1017D000C9F700976105710508959B01AC010A2EB8
:1017E00006945795479537952795BA95C9F7620F8F
:1017F000731F841F951FA01D089519F40EF046CA8B
:101800008FCA4ACA73DAC8F39638C0F707F80F923E
:10181000E8942BE33AEA48EB5FE797DA0F920F92EE
:101820000F924DB75EB70F92C0D0E4E5F0E016D04E
:101830004F915F91EF91FF91E595EE1FFF1F49F0EA
:10184000FE57E0684427EE0F441FFA95E1F74195F3
:10185000550B32D00F9007FE26C00895DF93CF932B
:101860001F930F93FF92EF92DF927B018C0168949C
:1018700005C0DA2EEF0167DAFE01E894A591259103
:10188000359145915591AEF3EF01DCD8FE019701FA
:10189000A801DA9479F7DF90EF90FF900F911F91F4
:1018A000CF91DF9108959B01AC0160E070E080E88A
:1018B0009FE31BC9EBC9ACC019DAE8F39923D9F34C
:1018C000940F511DBBF39150504094F059F0882370
:1018D00032F0660F771F881F91505040C1F79E3F2E
:1018E000510544F7880F911D9695879597F90895AE
:1018F0005F3FACF0983E9CF0BB2786957795679547
:10190000B79508F4B1609395C1F7BB0F58F711F480
:1019100060FFE8CF6F5F7F4F8F4F9F4FE3CF01CACC
:101920000EF076C0B9C96894B1C9E0D9C8F399235B
:10193000D1F3C6F3DF93CF931F930F93FF92C92F79
:10194000DD2788232AF02197660F771F881FDAF793
:1019500020E030E040E85FEB9FE3883920F0803EF4
:1019600030F021968F775DD8ECE7F0E003C059D8CE
:10197000E9EAF0E073DF8B01BE01EC01FB2E6F574B
:1019800071097595771F880B990B45D928E132E7C6
:1019900041E35FE3D8D9AF2D9801AE01FF900F91DD
:1019A0001F91CF91DF914ED888C9FA01DC01AA0FAF
:1019B000BB1F9B01AC01BF5728F4222733274427C4
:1019C00050781FC0B75188F4AB2F00244695379547
:1019D0002795011CA395D2F3002069F0220F331F35
:1019E000441FB395DAF30DD01BC861307105A0E830
:1019F0008A07B94630F49B01AC0166277727882710
:101A00009078309621F02083318342835383089568
:101A10009F3F31F0915020F4879577956795B79562
:101A2000880F911D9695879597F908952F923F926B
:101A30004F925F926F927F928F929F92AF92BF92DE
:101A4000CF92DF92EF92FF920F931F93CF93DF938A
:101A5000CDB7DEB7CA1BDB0B0FB6F894DEBF0FBEE7
:101A6000CDBF09942A88398848885F846E847D8434
:101A70008C849B84AA84B984C884DF80EE80FD8036
:101A80000C811B81AA81B981CE0FD11D0FB6F894AC
:0E1A9000DEBF0FBECDBFED010895F894FFCF6D
:101A9E000A417809417909417A0947780947790954
:101AAE00477A0A0025732C20002025732C20002055
:041ABE0025730A0082
:00000001FF
