:100000000C942A000C943F000C943F000C943F0089
:100010000C943F000C943F000C943F000C943F0064
:100020000C943F000C9478000C943F000C943F001B
:100030000C943F000C943F000C943F000C943F0044
:100040000C943F000C943F000C943F000C943F0034
:100050000C943F0011241FBECFE5D8E0DEBFCDBF1A
:1000600010E0A0E6B0E0E6EBF1E002C005900D92F2
:10007000A437B107D9F70E94BE000C94D9000C94A4
:1000800000008130910511F480EA0BC082309105A7
:1000900011F481EA06C0039719F020E030E00BC0AC
:1000A00082EA87B980E487B985E886B9369A369BB3
:1000B000FECF24B135B1C901089511B88FE080B9E0
:1000C000089584EA86BF06B607FEFDCF089584E949
:1000D00086BF0895880F991F682B792B63B984E830
:1000E00086BF06B607FEFDCF0895089581B1089535
:1000F0001F920F920FB60F9211248F9388B38095A1
:1001000088BB8F910F900FBE0F901F9018955F9B2B
:10011000FECF8CB108955D9BFECF8CB90895FC0194
:1001200004C05D9BFECF8CB9319680818823C9F7CE
:10013000089501C08CB15F99FDCF089590BD89B934
:10014000599A88E18AB98EE880BD08958CE090E0E4
:100150000E949E00E0E6F0E004C05D9BFECF8CB9FB
:10016000319680818823C9F708958EB582608EBD4F
:100170001DBC1CBC84E089BF7894089511B88FE041
:1001800080B984EA86BF06B607FEFDCF80ED83B94D
:1001900084E886BF06B607FEFDCF88E183B984E810
:1001A00086BF06B607FEFDCF84E986BF80E090E0FB
:0601B0000895F894FFCF52
:1001B60041542B554152543D393630302C322C3077
:0401C6000D0A00001E
:00000001FF
