:100000000C942A000C943F000C943F000C943F0089
:100010000C943F000C943F000C943F000C943F0064
:100020000C943F000C945E000C943F000C943F0035
:100030000C943F000C943F000C943F000C943F0044
:100040000C943F000C943F000C943F000C943F0034
:100050000C943F0011241FBECFE5D8E0DEBFCDBF1A
:1000600010E0A0E6B0E0EEE9F1E002C005900D92EC
:10007000A437B107D9F70E94A4000C94CD000C94CA
:10008000000011B88AE280B984E086BF089584EA4E
:1000900086BF06B607FEFDCF089584E986BF0895A2
:1000A000880F991F682B792B63B984E886BF06B641
:1000B00007FEFDCF0895089581B108951F920F9214
:1000C0000FB60F9211248F9388B3809588BB8F91C0
:1000D0000F900FBE0F901F9018955F9BFECF8CB1B5
:1000E00008955D9BFECF8CB90895FC0104C05D9B13
:1000F000FECF8CB9319680818823C9F7089501C05D
:100100008CB15F99FDCF089590BD89B9599A88E166
:100110008AB98EE880BD08958CE090E00E9484004A
:10012000E0E6F0E004C05D9BFECF8CB931968081A3
:100130008823C9F708958EB582608EBD1DBC1CBC96
:1001400084E089BF7894089511B88AE280B984E088
:1001500086BF84EA86BF06B607FEFDCF80ED83B971
:1001600084E886BF06B607FEFDCF88E183B984E840
:1001700086BF06B607FEFDCF84EA86BF06B607FE39
:10018000FDCF81ED83B984E886BF06B607FEFDCFBB
:0E01900084E986BF80E090E00895F894FFCFE8
:10019E0041542B554152543D393630302C322C308F
:0401AE000D0A000036
:00000001FF
