:100000000C942A000C9434000C9434000C943400AA
:100010000C9434000C9434000C9434000C94340090
:100020000C9434000C9434000C9434000C94340080
:100030000C9434000C9434000C9434000C94340070
:100040000C9434000C9434000C9434000C94340060
:100050000C94340011241FBECFE5D8E0DEBFCDBF25
:100060000E9436000C945D000C94000011B88AE2E6
:1000700080B984EA86BF06B607FEFDCF80ED83B95E
:1000800084E886BF06B607FEFDCF8CE083B984E81E
:1000900086BF06B607FEFDCF84EA86BF06B607FE1A
:1000A000FDCF81ED83B984E886BF06B607FEFDCF9C
:0E00B00084E986BF80E090E00895F894FFCFC9
:00000001FF
