:100000000C942A000C943F000C943F000C943F0089
:100010000C943F000C943F000C943F000C943F0064
:100020000C943F000C9450000C943F000C943F0043
:100030000C943F000C943F000C943F000C943F0044
:100040000C943F000C943F000C943F000C943F0034
:100050000C943F0011241FBECFE5D8E0DEBFCDBF1A
:1000600010E0A0E6B0E0E2EEF1E002C005900D92F3
:10007000A63EB107D9F70E9496000C94EF000C94AD
:10008000000080E687B984E886B9089597B1877043
:10009000892B87B9369A369BFECF85B190E00895BB
:1000A0001F920F920FB60F9211248F9388B38095F1
:1000B00088BB8F910F900FBE0F901F9018955F9B7C
:1000C000FECF8CB108955D9BFECF8CB90895FC01E5
:1000D00004C05D9BFECF8CB9319680818823C9F71F
:1000E000089501C08CB15F99FDCF089590BD89B985
:1000F000599A88E18AB98EE880BD08958CE090E035
:100100000E947600E0E6F0E004C05D9BFECF8CB973
:10011000319680818823C9F708958EB582608EBD9F
:100120001DBC1CBC84E089BF789408951F930E9475
:100130007E0080E687B984E886B98FEF87BB18BA5E
:1001400081E081BB5F9BFECF8CB101C09CB15F9908
:10015000FDCF8033B1F412C080E00E944600182F1A
:1001600088BB83E790E00E9467003699FECF5D9BD5
:10017000FECF1CB98EE890E00E9467005F9BECCF39
:10018000E1CF813371F481E00E944600182F88BBD3
:1001900080E990E00E9467003699FECF5D9BFECF1C
:1001A0000FC0823389F482E00E944600182F88BB7A
:1001B0008BEA90E00E9467003699FECF5D9BFECFF0
:1001C0001CB98EE890E008C08A3009F4BBCF8D30AE
:1001D00009F4B8CF86EC90E00E946700B3CFF894A2
:0201E000FFCF4F
:1001E20041542B554152543D393630302C322C304B
:1001F2000D0A0052656164205A20417869732041DA
:100202006363656C65726174696F6E2E0A000A0021
:1002120052656164205920417869732041636365A6
:100222006C65726174696F6E2E0A0052656164209A
:1002320058204178697320416363656C657261740B
:10024200696F6E2E0A00506C656173652073656C70
:1002520065637420612070726F706572206F7074B4
:06026200696F6E2E0A0018
:00000001FF
