:100000000C942A000C943F000C943F000C943F0089
:100010000C943F000C943F000C943F000C943F0064
:100020000C943F000C94EB1A0C943F000C943F008E
:100030000C943F000C943F000C943F000C943F0044
:100040000C943F000C943F000C943F000C943F0034
:100050000C943F0011241FBECFE5D8E0DEBFCDBF1A
:1000600010E0A0E6B0E0E2EAF7E302C005900D92EE
:10007000AA38B107D9F70E94311B0C94CF1B0C94FE
:1000800000000F931F93CF93DF93982FDB018A011A
:10009000E90121153105C9F0EA8DFB8D3097A9F0F2
:1000A0008A81813009F490688981692FAD019801B6
:1000B0000995182FEE8DFF8D61E070E080E090E0F3
:1000C0000995112319F01EEF01C01FEF812FDF9159
:1000D000CF911F910F910895AF92BF92CF92DF926F
:1000E000FF920F931F93CF93DF93F82E6B015A016A
:1000F000E90121153105E1F1EC8DFD8D3097C1F15C
:100100008A81813011F48FE7F8228885813131F0BE
:100110008889853119F010E000E01FC089816F2DBA
:10012000A60195010995182FEE8DFF8D61E070E015
:1001300080E090E0099518C04C0D5D1DEC8DFD8DA3
:10014000898121E030E00995182FEE8DFF8D61E067
:1001500070E080E090E009950F5F602F6F0D402FF9
:1001600050E04A155B0540F3112319F01EEF01C062
:100170001FEF812FDF91CF911F910F91FF90DF90A3
:10018000CF90BF90AF900895CF92DF92FF920F93E0
:100190001F93DF93CF930F92CDB7DEB78C010097FB
:1001A00009F464C0DC015E968D919C915F97892B68
:1001B00009F45CC086EB89838EE76E010894C11C4C
:1001C000D11CB60141E050E098010E946C00F82E6D
:1001D000D8015E96ED91FC915F976FE070E080E052
:1001E00090E00995FF2009F043C0F8018281813039
:1001F00059F48FE7B60141E050E098010E944100B8
:10020000882311F0F82E34C022E0D80117962C93E1
:10021000179798E015969C93159780E114968C9308
:10022000149783E016968C9316971F962C931F971E
:100230001D969C931D9784E11C968C931C971E968B
:100240001C921E9714968D919D910D90BC91A02D9E
:10025000F80180879187A287B38784859585A685D5
:10026000B785808B918BA28BB38B02C0FF24FA944D
:100270008F2D0F90CF91DF911F910F91FF90DF9005
:10028000CF900895CF92DF92FF920F931F93DF9349
:10029000CF9300D0CDB7DEB78C01009709F4ABC087
:1002A000DC015E968D919C915F97892B09F4A3C028
:1002B00014969C911497892F8051833008F0A8C020
:1002C000198218968C91981709F457C01A8280E405
:1002D0006E010894C11CD11CB60141E050E09801A8
:1002E0000E944100F82E882309F087C0F80184811C
:1002F00099818231A1F49068998380E4B60141E04C
:1003000050E098010E946C00F82E882309F075C017
:1003100088E5BE016E5F7F4F42E050E008C097FF66
:100320000DC09F77998380E4B60141E050E09801C9
:100330000E946C00F82E882309F05FC0B8016C5F42
:100340007F4F8EE741E050E098010E946C00F82E4C
:10035000D80118968C911897803149F45E96ED91EA
:10036000FC915F9765E070E080E090E00995F8010E
:1003700084818087FF2009F040C0D8011C969C91A1
:10038000892F8451823018F0973109F041C0F8016B
:100390008089981711F4FF2430C0B801645F7F4F43
:1003A0008EE741E050E098010E946C00F82ED801E1
:1003B00050968C915097843149F45E96ED91FC9162
:1003C0005F9761E570E080E090E00DC0873161F4F7
:1003D000F8018485853141F4068CF78DE02D6AE0C3
:1003E00070E080E090E00995D8011C968C911C97F4
:1003F00050968C9302C0FF24FA948F2D0F900F908B
:10040000CF91DF911F910F91FF90DF90CF900895D2
:100410008CEFF82EF2CFEF92FF920F931F93DF93A2
:10042000CF9300D00F92CDB7DEB78C01009709F4BF
:10043000D5C0DC015E968D919C915F97892B09F464
:10044000CDC01B821A8280E4BE016E5F7F4F42E006
:1004500050E098010E944100882309F0C0C0F801D3
:100460009581903108F09BC08185981709F4C1C02F
:100470009F708A81807F982B9A83BBC0D8011B967E
:100480008C91981709F4BCC08A818F788A83B8C090
:10049000F8018285981709F4B9C09F708B81807F1D
:1004A000982B9B83B3C0D80115968C9115971996FC
:1004B0008C93199717968C9117971B968C931B9773
:1004C0005E96ED91FC915F9761E070E080E090E0D6
:1004D000099581E4BE016D5F7F4F41E050E09801D6
:1004E0000E946C00882309F07AC0F8018681828717
:1004F0001B821A8282E4B70142E050E098010E9418
:100500004100882309F06BC0D8011D969C911D976E
:100510009E3008F044C051968C91981709F485C01C
:100520009F708A81807F982B9A837FC03A81F801DF
:1005300096859530A0F58289981709F47DC097704B
:100540008B81887F982B9B8377C0D8011D968C91D7
:100550001D9751968C9351971F968C911F97539688
:100560008C9353975E96ED91FC915F9761E070E0FC
:1005700080E090E0099583E4BE016D5F7F4F41E02C
:1005800050E098010E946C00882349F5F8018685A7
:10059000828BC8010E944201882309F502C08CEFBA
:1005A0001EC0198282E0BE016F5F7F4F41E050E0C4
:1005B00098010E944100998196959F70913011F4A5
:1005C0008AEF0DC0923011F489EF09C0933011F415
:1005D00088EF05C0973019F487EF01C08FEF0F90B7
:1005E0000F900F90CF91DF911F910F91FF90EF909F
:1005F0000895D80117969C91933008F43FCFCFCF40
:10060000F80196819D3008F443CFC9CF92E0E92EDE
:10061000F12CEC0EFD1E80E4B70141E050E09801A2
:100620000E946C008823D9F63ECFD8011F962C91EA
:10063000233008F47BCFB3CF229520733F7C232B4C
:100640002A8382E4BE016E5F7F4F41E050E0980153
:100650000E946C00882319F678CFDF92EF92FF9208
:100660000F931F93DF93CF93CDB7DEB768970FB685
:10067000F894DEBF0FBECDBF7B018A01482F4770C3
:10068000842F90E09695879596958795813019F4FB
:1006900053E0D52E01C0DD242115310509F431C107
:1006A000842F8370823009F44EC0833009F4AEC0C9
:1006B000813011F06BEF28C1E114F10409F421C17C
:1006C000FE01319689E0DF011D928A95E9F74D2DF3
:1006D00050E04A5F5F4F82E1BF010E944100682FF6
:1006E000882309F010C19A8180E0298130E0822BB3
:1006F000932BF701918380839C8180E02B8130E0F4
:10070000822B932B938382839E8180E02D8130E026
:10071000822B932B95838483F3E0DF1671F42F8172
:1007200030E040E050E0988580E0A0E0B0E0282B89
:10073000392B4A2B5B2BD701D0C0F70116821782C9
:1007400010861186E1C00115110509F4DAC0FE0119
:100750003A968FE0DF011D928A95E9F7DD2021F5B9
:100760008CE0BF0146E050E00E944100682F8823E2
:1007700009F0C9C09B8580E02A8530E0822B932B4D
:10078000F801918380839D8580E02C8530E0822B69
:10079000932B938382839F8580E02E8530E0822B8C
:1007A000932B95838483A5C04D2D50E0445F5F4F0C
:1007B0008CE0BF010E944100682F882309F0A3C08C
:1007C0009B8580E02A8530E0822B932BF801918372
:1007D00080839D8580E02C8530E0822B932B938352
:1007E00082839F8580E02E8530E0822B932B95833A
:1007F00084832E8930E040E050E09F8980E0A0E0D3
:10080000B0E0282B392B4A2B5B2B66C00115110554
:1008100009F477C0E114F10409F473C0FE013A96BB
:100820008FE0DF011D928A95E9F74D2D50E0445F7E
:100830005F4F8CE0BF010E944100682F882309F0C0
:1008400062C09B8580E02A8530E0822B932BF801E3
:10085000918380839D8580E02C8530E0822B932BD3
:10086000938382839F8580E02E8530E0822B932BBB
:1008700095838483998980E0288930E0822B932BAB
:10088000D70111969C938E939B8980E02A8930E052
:10089000822B932B13969C938E9312979D8980E0C5
:1008A0002C8930E0822B932B15969C938E93149772
:1008B000B3E0DB16C9F42E8930E040E050E09F89B8
:1008C00080E0A0E0B0E0282B392B4A2B5B2BF7010E
:1008D0002683378340875187D80116962D933D9301
:1008E0004D935C93199710C0F701168217821086FA
:1008F0001186D80116961D921D921D921C92199771
:1009000003C06FEF01C06EEF862F68960FB6F894A4
:10091000DEBF0FBECDBFCF91DF911F910F91FF9032
:10092000EF90DF9008952F923F924F925F926F92D7
:100930007F928F929F92AF92BF92CF92DF92EF926F
:10094000FF920F931F93DF93CF93CDB7DEB72C9712
:100950000FB6F894DEBF0FBECDBFE82F7C876B8744
:100960004A0159012115310509F476C0D9015A9679
:100970008D919C915B97892B09F46EC054968C9154
:1009800080FF6CC086958695837090E081309105DC
:1009900071F08230910524F4892B09F47AC05EC08D
:1009A0008230910541F0039709F058C008C0B2E0C9
:1009B000EB2EF12C71C0A6E0EA2EF12C6DC0F8E010
:1009C000EF2EF12C69C08DE4BE016F5F7F4F41E0D7
:1009D00050E095010E946C00182FD5015E96ED91B4
:1009E000FC915F976AE070E080E090E00995112348
:1009F00071F584E0602F732DA70195010E944100DD
:100A0000882311F01EEF2BC08E149F0410F4722C5B
:100A100007C0C4018C199D098E159F0508F4752C1B
:100A2000AB85BC85AC0DBD1D802F932DFC0102C094
:100A300081918D938E2F801B8715D0F38981840D32
:100A40008983640CBA855B0E10E0C62CDD24C814C3
:100A5000D90408F4B8CF03C01FEF01C01BEF812FEA
:100A60002C960FB6F894DEBF0FBECDBFCF91DF91AD
:100A70001F910F91FF90EF90DF90CF90BF90AF90BC
:100A80009F908F907F906F905F904F903F902F90AE
:100A9000089571E0E72EF12CE983FE01329688E09B
:100AA000DF011D928A95E9F74E2CBE2DB195BA87CC
:100AB000582C7E2C66240E2F3F2E282CC5CF4F920B
:100AC0005F926F927F928F929F92AF92BF92CF92DE
:100AD000DF92EF92FF920F931F93DF93CF930F92CA
:100AE000CDB7DEB789836B014A0189012115310534
:100AF00009F44BC0D9015C968D919C915D97892B2F
:100B000009F443C0FF24EE242E010894411C511C1B
:100B10003A0108946108710832C08FE4B60141E0DF
:100B200050E098010E946C00F82ED8015E96ED917D
:100B3000FC915F976AE070E080E090E00995FF200B
:100B4000E9F48EE4B20141E050E098010E946C00AB
:100B5000F82ED8015E96ED91FC915F976AE070E007
:100B600080E090E00995FF2049F4A614B70430F422
:100B70000894C11CD11C89818F5F8983E394AE2CBA
:100B8000BB24A814B90448F202C0FF24FA948F2DA4
:100B90000F90CF91DF911F910F91FF90EF90DF9019
:100BA000CF90BF90AF909F908F907F906F905F900D
:100BB0004F900895EF92FF921F93DF93CF9300D051
:100BC000CDB7DEB77C01DC0155968C9190E0880FA3
:100BD000991F89831A828CE4BE016E5F7F4F41E0CA
:100BE00050E097010E944100182F882311F5F7016A
:100BF00094899695292F2795222727958A818C7786
:100C0000822B96959370892B8A838BE4BE016F5F4C
:100C10007F4F42E050E097010E946C00182FD701EF
:100C20005E96ED91FC915F976AE070E080E090E065
:100C30000995812F0F900F90CF91DF911F91FF9019
:100C4000EF9008950F931F93DF93CF9300D0CDB70C
:100C5000DEB78C01009709F458C0DC015896ED917D
:100C6000FC91599780819181892B09F44EC010869F
:100C700017821286118614861386158616861786A5
:100C8000108A118A82E2BE016F5F7F4F42E050E01E
:100C900098010E9441009A8129818823B9F5792F12
:100CA0007770972F80E030E0282B392BD8015896A9
:100CB000ED91FC915997428153812417350710F427
:100CC000338322838481823051F42C5F3F4F42175B
:100CD000530728F082819381049693838283D801FD
:100CE00012968C91813011F464EA01C064E27A8337
:100CF0004081518122813381D8015A96ED91FC9136
:100D00005B9711968C91099501C08FEF0F900F9012
:100D1000CF91DF911F910F910895DF93CF930F92A1
:100D2000CDB7DEB79C01009711F48FEF0AC080EBBE
:100D300089838EE7BE016F5F7F4F41E050E00E94E4
:100D40006C000F90CF91DF910895EF92FF920F9377
:100D50001F93DF93CF930F92CDB7DEB7F82EE62E19
:100D60008A014115510511F42FEF3FC0198287E424
:100D7000BE016F5F7F4F41E050E098010E9441004B
:100D8000282F882391F58F2D8E7F49F0998121E0BE
:100D9000E21611F4982B02C080959823998387E47A
:100DA0007E010894E11CF11CB70141E050E098017C
:100DB0000E946C00282F8823C1F487E4B70141E02A
:100DC00050E098010E944100282F882371F4D80137
:100DD0005896ED91FC9159978981982F9071958340
:100DE000982F907E968382708483822F0F90CF916C
:100DF000DF911F910F91FF90EF900895DF92EF9296
:100E0000FF920F931F93DF93CF930F92CDB7DEB76F
:100E1000D82E8B016115710511F48FEF18C019825E
:100E200085E47E010894E11CF11CB70141E050E02B
:100E300098010E944100882351F489818D2989837A
:100E400085E4B70141E050E098010E946C000F90EA
:100E5000CF91DF911F910F91FF90EF90DF90089558
:100E6000DF93CF930F92CDB7DEB79B01611571056C
:100E700011F48FEF09C0898386E4BE016F5F7F4F55
:100E800041E050E00E946C000F90CF91DF910895F7
:100E9000CF92DF92EF92FF921F93DF93CF9300D018
:100EA000CDB7DEB77C0180EA8A838AE66E010894BA
:100EB000C11CD11CB60141E050E097010E944100E5
:100EC000182F8823C9F58981826089838AE6B60153
:100ED00041E050E097010E946C00182F882361F5D3
:100EE0008EE7BE016E5F7F4F41E050E097010E94A8
:100EF0006C00182F882301F58BE1B60141E050E02A
:100F000097010E944100182F8823B1F4898190E055
:100F10008071907024E0959587952A95E1F781304E
:100F200059F0D7015E96ED91FC915F97198269E1C6
:100F300070E080E090E00995812F0F900F90CF91A5
:100F4000DF911F91FF90EF90DF90CF900895FF9277
:100F50000F931F93CF93DF93EB018A018F3021F41E
:100F60008CE144E050E027C0F82E80E0F0FE06C09F
:100F70008CE141E050E098010E944100F1FE09C07F
:100F8000BE016F5F7F4F8DE141E050E098010E940C
:100F90004100F2FE09C0BE016E5F7F4F8EE141E06D
:100FA00050E098010E944100F3FE08C023968FE1B3
:100FB000BE0141E050E098010E944100DF91CF91D5
:100FC0001F910F91FF900895CF92DF92EF92FF92C1
:100FD0000F931F93DF93CF930F92CDB7DEB77C01B2
:100FE0006B01198283E5BE016F5F7F4F41E050E0E6
:100FF00096010E944100882309F0A1C0F701808179
:1010000022813981813019F5822F817090E0B3E01F
:10101000880F991FBA95E1F78870337F382B822F9C
:101020008695817090E0880F991F880F991F8470B2
:10103000382B26952695822F817090E0880F991F76
:1010400082703C7F382B26952170322B29C0822F4D
:101050008795882787953F73382B822F86958170D7
:1010600090E0E6E0880F991FEA95E1F78074382B4D
:1010700026952695822F817090E075E0880F991F44
:101080007A95E1F780723F7C382B26952170822F6C
:1010900090E064E0880F991F6A95E1F78071382B22
:1010A000398383E58E010F5F1F4FB80141E050E0A7
:1010B00096010E946C00882309F041C0198284E5E2
:1010C000B80141E050E096010E9441008823B9F543
:1010D000F701808122813981813061F4229521706C
:1010E000822F90E054E0880F991F5A95E1F78071A4
:1010F0003F7E0BC022952170822F90E045E0880F43
:10110000991F4A95E1F780723F7D832B8983F70110
:10111000828182958695877093819170990F990F3E
:10112000990F982B8981807F982B998384E5BE0144
:101130006F5F7F4F41E050E096010E946C000F907E
:10114000CF91DF911F910F91FF90EF90DF90CF90A3
:101150000895FC01009771F0828D938D892B51F0D9
:10116000848D958D892B31F0868D978D892B11F08B
:1011700080E008958FEF0895CF92DF92EF92FF9273
:101180000F931F93DF93CF93CDB7DEB727970FB69B
:10119000F894DEBF0FBECDBF7C018B016A01CA018E
:1011A0000E94A908882311F08FEF37C0F8018081D1
:1011B000898381818A8382818B8383818C838581EA
:1011C0008D83878190858E8380709370392F3295BF
:1011D000307F8581968180709370292F220F220F96
:1011E000232B8381948180709370292BF701858153
:1011F0008795882787952F73282B84818295880F60
:10120000880F8074282B2F8381E7BE016F5F7F4F8B
:1012100047E050E096010E946C0027960FB6F894C4
:10122000DEBF0FBECDBFCF91DF911F910F91FF9019
:10123000EF90DF90CF900895EF92FF920F931F935E
:10124000DF93CF93CDB7DEB727970FB6F894DEBF05
:101250000FBECDBF7C018B01CB010E94A908882362
:1012600011F04FEF64C081E7BE016F5F7F4F47E031
:1012700050E098010E944100482F8981D7018C934A
:101280008A8111968C9311978B8112968C93EF81A2
:101290009E2F9295990F990F907C80E02C8130E0E1
:1012A00076E0220F331F7A95E1F7822B932B60E4CF
:1012B00070E00E94A81BD70114967C936E9313973D
:1012C000F0E0F695E795F695E7959E2F9295990FA4
:1012D000990F907C80E02D8130E056E0220F331F83
:1012E0005A95E1F7822B932B60E470E00E94A81BD3
:1012F000D70116967C936E931597F695E795F6951C
:10130000E7959E2F9295990F990F907C80E02E8102
:1013100030E016E0220F331F1A95E1F7822B932B52
:1013200060E470E00E94A81BF70170876783842F38
:1013300027960FB6F894DEBF0FBECDBFCF91DF91D9
:101340001F910F91FF90EF9008950F931F93CF93EC
:10135000DF938C01EB01CB010E94A908882311F0D7
:101360008FEF0DC08C898370813011F08BEF07C037
:1013700084E0B80148E050E09E010E944100DF9106
:10138000CF911F910F910895EF92FF920F931F93AA
:10139000DF93CF9300D0CDB7DEB77C018B011982EC
:1013A0001A82CB010E94A908882311F04FEF15C0C3
:1013B00088E7BE016F5F7F4F42E050E098010E94D6
:1013C0004100482F882349F49A8180E0298130E048
:1013D000822B932BF70191838083842F0F900F90A2
:1013E000CF91DF911F910F91FF90EF900895FF92A1
:1013F0000F931F93DF93CF930F92CDB7DEB7F82EE5
:101400008B011982CB010E94A908882311F08FEF6C
:101410001CC08BE7BE016F5F7F4F41E050E0980139
:101420000E944100882389F4898191E0F91611F422
:10143000886001C0877F89838BE7BE016F5F7F4F24
:1014400041E050E098010E946C000F90CF91DF9135
:101450001F910F91FF9008950F931F93DF93CF93E8
:1014600000D0CDB7DEB78C010E94A908882331F5E2
:10147000F8018281813059F48FE7BE016F5F7F4FA1
:1014800041E050E098010E9441008823B9F480E0D7
:10149000BE016E5F7F4F41E050E098010E94410025
:1014A000882359F48A81813D41F4F80180838FEFCC
:1014B0008383C8010E94C40001C08DEF0F900F907C
:1014C000CF91DF911F910F910895CF92DF92EF920C
:1014D000FF920F931F93DF93CF930F92CDB7DEB799
:1014E0007C018B01CB010E94A908882319F0FF24FD
:1014F000FA944BC0D80154968C9180FD03C0EBEF59
:10150000FE2E43C08DE4B70141E050E098010E94F7
:101510006C00F82ED8015E96ED91FC915F976AE021
:1015200070E080E090E00995FF2079F584E46E0199
:101530000894C11CD11CB60141E050E098010E9402
:101540004100F82E882309F5F801848982958F706F
:10155000898384E4B60141E050E098010E946C0068
:10156000F82ED8015E96ED91FC915F976AE070E0ED
:1015700080E090E00995FF2041F4F80184898D7F97
:10158000848BC8010E94DA05F82E8F2D0F90CF9121
:10159000DF911F910F91FF90EF90DF90CF90089512
:1015A000EF92FF920F931F93DF93CF9300D0CDB7AD
:1015B000DEB78C010E94A908882311F08FEF3BC091
:1015C000D80154968C9180FD02C08BEF34C01982F3
:1015D00089E18A838EE7BE016E5F7F4F41E050E074
:1015E00098010E946C00882331F5D8015E96ED9138
:1015F000FC915F976CE370E080E090E009958BE6EA
:101600007E010894E11CF11CB70141E050E0980113
:101610000E9441009981882371F4906299838BE63E
:10162000B70141E050E098010E946C00882319F452
:10163000C8010E94DA050F900F90CF91DF911F91A2
:101640000F91FF90EF900895CF92DF92EF92FF926B
:101650001F93DF93CF93CDB7DEB765970FB6F8949E
:10166000DEBF0FBECDBF182F7B01CB010E94A908A2
:10167000882311F08FEFD9C0113021F0123009F01A
:10168000E4C087C081E1D70114968C93149788E059
:1016900016968C93C7010E940B02182F882309F01D
:1016A000BCC08CE2898380E46E010894C11CD11C0B
:1016B000B60141E050E097010E946C00182F88238A
:1016C00009F0ABC08DE089838DE6B60141E050E0C2
:1016D00097010E946C00182F882309F09EC0D70143
:1016E0005E96ED91FC915F9762E370E080E090E0A0
:1016F000099581E0BE016E5F7F4F40E050E09701A9
:101700000E942D03182F882309F087C089E0898360
:101710008DE6B60141E050E097010E946C00182F61
:10172000882309F07AC0D7015E96ED91FC915F970E
:1017300062E370E080E090E0099581E0BE01645FC3
:101740007F4F40E050E097010E942D03182F88231F
:1017500009F063C08C859D852A813B81821B930B98
:101760008150904208F46FC08E859F852C813D8109
:10177000821B930B8150904208F465C08889998937
:101780002E813F81821B930B8150904208F45BC0F5
:1017900046C085E1D7011C968C93C7010E94420187
:1017A000182F8823D1F58DE66E010894C11CD11C39
:1017B000B60141E050E097010E944100182F8823B4
:1017C00061F58981806189838DE6B60141E050E051
:1017D00097010E946C00182F8823F9F4D7015E96B8
:1017E000ED91FC915F9764E170E080E090E00995F5
:1017F0008BE1B60141E050E097010E944100182FB3
:10180000882359F4898190E082709070959587952E
:101810008983813021F011E002C017FD05C0C701A6
:101820000E94C400882309F4812F65960FB6F894AE
:10183000DEBF0FBECDBFCF91DF911F91FF90EF9024
:10184000DF90CF90089512E0EACF1BEFEDCF8F929B
:101850009F92AF92BF92CF92DF92EF92FF920F933F
:101860001F93DF93CF93CDB7DEB767970FB6F8948A
:10187000DEBF0FBECDBF7C014B018A01CA010E94B1
:10188000A908882311F03FEFC5C032E0C32ED12C48
:10189000CC0EDD1E87E7B60141E050E098010E94C2
:1018A0004100382F882309F0B5C0D70115968C91D7
:1018B00015978795882787959A819F73982B1496FB
:1018C0008C918295880F880F8074982B9A8387E774
:1018D000B60141E050E098010E946C00382F882347
:1018E00009F098C089E65E010894A11CB11CB501FD
:1018F00041E050E098010E944100382FF7018081BB
:101900008295880F880F807429812F78282B8181F8
:1019100082958073282B237F8281880F880F8C709B
:10192000282B8381332309F075C02C7F8370282BEB
:10193000298389E6B50141E050E098010E946C00DE
:10194000382F882309F066C083E08A838EE7B601CA
:1019500041E050E098010E946C00382F882309F084
:1019600059C08BE1BE016D5F7F4F41E050E09801AF
:101970000E944100882359F48B8190E08870907018
:1019800023E0959587952A95E1F78130B9F1FF24F9
:10199000B3E0CB2ED12CCC0EDD1ED8015E96ED919E
:1019A000FC915F9769E170E080E090E009958BE140
:1019B000B60141E050E098010E944100282F8823A1
:1019C00011F080E009C08B8190E088709070A3E0F6
:1019D00095958795AA95E1F7F394813021F0BBE0C6
:1019E000FB16D9F680E02223A1F4813091F4C401E2
:1019F000B8010E941C09382F882361F48CE0BE01D5
:101A00006C5F7F4F44E150E098010E944100382F05
:101A100001C035EF832F67960FB6F894DEBF0FBE77
:101A2000CDBFCF91DF911F910F91FF90EF90DF908D
:101A3000CF90BF90AF909F908F900895EF92FF92BC
:101A40000F931F93DF93CF9300D00F92CDB7DEB7E4
:101A50008C017B01DE011196E0E8F0E083E001906B
:101A60000D928150E1F785E5BE016F5F7F4F43E046
:101A700050E097010E944100882369F5D801119632
:101A8000EC911197F0E0ED58FF4FE0818E2F80959B
:101A9000298128233B8138238C91813041F081308A
:101AA00038F0823039F0833049F08CEF14C02E2B9F
:101AB000298307C03E2B3B83298304C02E2B298317
:101AC0003E2B3B8385E5BE016F5F7F4F43E050E0D7
:101AD00097010E946C000F900F900F90CF91DF91B3
:101AE0001F910F91FF90EF900895EF92FF920F9347
:101AF0001F93DF93CF930F92CDB7DEB78C017B019D
:101B0000198286E5BE016F5F7F4F41E050E097018B
:101B10000E944100882359F5D8011196EC91119744
:101B2000F0E0ED58FF4FE0819E2F9295907F2E2F91
:101B3000209589812823892F809528238C918130B5
:101B400059F0813050F0823021F0833021F08CEF59
:101B50000EC02E2B02C02E2B292B298386E5BE0119
:101B60006F5F7F4F41E050E097010E946C000F9043
:101B7000CF91DF911F910F91FF90EF900895CF9239
:101B8000DF92EF92FF920F931F93DF93CF9300D0DA
:101B900000D000D0CDB7DEB77C018B01FC01818184
:101BA000863009F4BCC3873070F4823009F4D5C2A2
:101BB000833028F48823F1F08130D1F4CBC0853014
:101BC00008F407C244C38A3009F448C58B3038F49E
:101BD000883009F410C4893008F054C1A1C48C3095
:101BE00009F47EC58C3008F455C58D3009F4B1C5B3
:101BF00080E0B4C5CB010E94A908882309F0ADC5D7
:101C0000E114F10409F4A9C5198280E5BE016F5FF2
:101C10007F4F41E050E098010E944100882309F085
:101C20009DC5F7012481398120FF1DC0822F869533
:101C300081703C7F382B26952695822F817090E00D
:101C4000880F991F8270382B3B7F26952170822F39
:101C500090E0880F991F880F991F8470382B398363
:101C6000F801138205C0387F39838FEFF801838331
:101C700080E56E010894C11CD11CB60141E050E022
:101C800098010E946C00882309F068C5C701B8015B
:101C90000E94E407882309F061C5198282E6B60133
:101CA00041E050E098010E944100882309F056C5A8
:101CB000898181FF0CC08D7F898382E6B60141E076
:101CC00050E098010E946C00882309F047C5C701C5
:101CD000B8010E941E0D882309F040C5198289E5CC
:101CE0006E010894C11CD11CB60141E050E098017E
:101CF0000E944100882309F031C5F7018481829553
:101D000086958695837087958827879599819F7793
:101D1000892B898389E5B60141E050E098010E9452
:101D20006C00882309F01AC519821B821A828FE57C
:101D3000B60141E050E098010E944100882309F07B
:101D40000DC589818C7F89838A83F70185818B8387
:101D50008FE5FDC1CB010E94A908882309F0FDC4CD
:101D6000E114F10409F4F9C4198280E5BE016F5F42
:101D70007F4F41E050E098010E944100882309F024
:101D8000EDC4F7018481998185FF04C09760998330
:101D900081E003C0987F99838FEFF801838380E50A
:101DA0006E010894C11CD11CB60141E050E09801BD
:101DB0000E946C00882309F0D1C4C701B8010E94B9
:101DC000E407882309F0CAC4C701B8010E941E0DA8
:101DD000882309F0C3C4198289E5B60141E050E0C7
:101DE00098010E944100882309F0B8C4F70184815A
:101DF00082958F7087958827879599819F77892B02
:101E0000898389E5B60141E050E098010E946C00A9
:101E1000882309F0A3C4F7018581898380E6B60190
:101E200041E050E098010E946C00882309F096C4BC
:101E300082E6B60141E050E098010E94410088230B
:101E400009F08CC4F7018481282F2370220F220F00
:101E50003981337C322B282F220F220F2073322B13
:101E60003D7F82958695817090E0880F991F8270E2
:101E7000382B398382E6B60141E050E098010E9498
:101E80006C006CC4CB010E94A908882309F065C4CA
:101E9000E114F10409F461C4198282E5BE016F5FA7
:101EA0007F4F41E050E098010E944100882309F0F3
:101EB00055C4F701848180FF03C0898181608983D3
:101EC000F701848181FF03C0898182608983F701E2
:101ED000848182FF03C089818460898382E56E01E9
:101EE0000894C11CD11CB60141E050E098010E9449
:101EF0006C00882309F032C4C701B8010E94E407CE
:101F0000882309F02BC4C701B8010E941E0D882345
:101F100009F024C4198289E5B60141E050E0980136
:101F20000E944100882309F019C4F7018581869534
:101F3000869587958827879599819F77892B8983AF
:101F400089E5B60141E050E098010E946C008823C9
:101F500009F004C419821B821A828FE5B60141E0A0
:101F600050E098010E944100882309F0F7C3F7016F
:101F70008481869586958695958191709295990F25
:101F8000907E982B990F990F89818370982B998354
:101F90008FE5B60141E050E098010E946C00882373
:101FA00009F0DCC382E6B60141E050E098010E94EE
:101FB0004100882309F0D2C3F7018581869581709D
:101FC00099819E7F892B89838B8386818A8381E691
:101FD000BEC0CB010E94A908882309F0BEC3E1144A
:101FE000F10409F4BAC3198280E5BE016F5F7F4F27
:101FF00041E050E098010E944100882309F0AEC3FF
:10200000F701818195812981843071F496959695A7
:1020100096959170892F90E0B5E0880F991FBA9539
:10202000E1F780722F7D0DC09695969596959170EB
:10203000892F90E0A4E0880F991FAA95E1F780719D
:102040002F7E822B898380E56E010894C11CD11CF0
:10205000B60141E050E098010E946C00882309F02D
:102060007DC3C701B8010E94E407882309F076C345
:10207000C701B8010E94E407882309F06FC3C701B4
:10208000B8010E941E0D882309F068C3198288E5F3
:10209000B60141E050E098010E944100882309F018
:1020A0005DC3F701858186958695817090E0F3E0A8
:1020B000880F991FFA95E1F788702981277F822B75
:1020C000898388E5B60141E050E098010E946C00E8
:1020D000882309F043C31B821A8283E6BE016E5F28
:1020E0007F4F42E050E098010E944100882309F0B0
:1020F00035C33A81F7018181833051F49481991F6E
:102100009927991F85818370880F892B387F382BF9
:10211000F7012481822F82958695817090E0E6E018
:10212000880F991FEA95E1F780743F73382B822F4F
:102130008295869586958370879588278795832BCA
:102140008A832F718B81807E282B2B8383E6BE01AF
:102150006E5F7F4F42E050E091CECB010E94A90814
:10216000882309F0FAC2E114F10409F4F6C21982D5
:1021700082E56E010894C11CD11CB60141E050E01B
:1021800098010E944100882309F0E8C2F701848188
:10219000817090E073E0880F991F7A95E1F788705D
:1021A0002981277F822B898382E5B60141E050E0B7
:1021B00098010E946C00882309F0D0C2C701B801C1
:1021C0000E94E407882309F0C9C2C701B8010E9430
:1021D0001E0D882309F0C2C21B821A82F701848176
:1021E000807C21F485E18A8383E00BC0803421F474
:1021F0008DE28A831B8229C0803829F48DE18A838D
:1022000087E08B8322C0803C01F58AE7BE016E5FC8
:102210007F4F42E050E098010E9441008823A9F4DA
:10222000F7012481922F990F990F98718A81807EEE
:10223000892B2695269526952770822B8A83958152
:1022400097708B81887F982B9B838AE780CFCB0107
:102250000E94A908882309F080C2E114F10409F45E
:102260007CC2198280E56E010894C11CD11CB601A4
:1022700041E050E098010E944100882309F06EC2BD
:10228000F7018681817090E066E0880F991F6A955A
:10229000E1F7807429812F7B822B898380E5B60149
:1022A00041E050E098010E946C00882309F056C27A
:1022B000C701B8010E94E407882309F04FC2C70193
:1022C000B8010E941E0D882309F048C21A821B82A1
:1022D00052E0C52ED12CCC0EDD1E85E6B60142E0C3
:1022E00050E098010E944100882309F037C2F701AD
:1022F00084818A832581322F3F73822F8295869530
:102300008695817090E046E0880F991F4A95E1F725
:102310008074382B2078232B2B8385E66AC0CB0171
:102320000E94A908882309F018C2E114F10409F4F5
:1023300014C2198280E56E010894C11CD11CB6013B
:1023400041E050E098010E944100882309F006C254
:10235000F701858186958695869587958827879547
:1023600099819F77892B898380E5B60141E050E010
:1023700098010E946C00882309F0F0C1C701B801E0
:102380000E94E407882309F0E9C1C701B8010E944F
:102390001E0D882309F0E2C11A821B8282E0C82E3A
:1023A000D12CCC0EDD1E87E6B60142E050E098014C
:1023B0000E944100882309F0D1C1F7013481932F95
:1023C0009F738A81807C982B9A839581292F220F75
:1023D000220F220F20738B81887C822B32953695B9
:1023E000369533709170990F990F932B892B8B83AE
:1023F00087E6B601AFCECB010E94A908882309F079
:10240000ACC1E114F10409F4A8C1198281E56E019F
:102410000894C11CD11CB60141E050E098010E9413
:102420004100882309F09AC1F70186818295817065
:1024300090E0B3E0880F991FBA95E1F78870298181
:10244000277F822B898381E5B60141E050E0980126
:102450000E946C00882309F081C1C701B8010E9465
:10246000E407882309F07AC1C701B8010E941E0D54
:10247000882309F073C1198288E56E010894C11C94
:10248000D11CB60141E050E098010E944100882330
:1024900009F064C1F70186818695869586958795B2
:1024A0008827879599819F77892B898388E5B6014D
:1024B00041E050E098010E946C00882309F04EC171
:1024C000DE011496E3E8F0E083E001900D92815084
:1024D000E1F78CE5BE016A5F7F4F41E050E0980173
:1024E0000E944100882309F039C1F7018681382F05
:1024F00033702E81287F232B86958695817090E0FE
:10250000880F991F880F991F8470282B2E8385812F
:102510008D8384818C838AE5BE016C5F7F4F9BC075
:10252000CB010E94A908882309F017C1E114F10426
:1025300009F413C1198281E56E010894C11CD11CF4
:10254000B60141E050E098010E944100882309F063
:1025500005C1F7012481822F817049814C7F482B6E
:102560002695822F817090E0880F991F8270482BEA
:102570004B7F2695217030E0220F331F220F331F2F
:102580002470422B498381E5B60141E050E0980177
:102590000E946C00882309F0E1C0C701B8010E94C5
:1025A000E407882309F0DAC0C701B8010E941E0DB4
:1025B000882309F0D3C0198288E56E010894C11CF4
:1025C000D11CB60141E050E098010E9441008823EF
:1025D00009F0C4C0F701848182958695877087953C
:1025E0008827879599819F77892B898388E5B6010C
:1025F00041E050E098010E946C00882309F0AEC0D1
:10260000DE011496E6E8F0E083E001900D9281503F
:10261000E1F764E0C62ED12CCC0EDD1E8CE5B601B0
:1026200041E050E098010E944100882309F096C0E3
:10263000F70184818695869586958295880F880F07
:10264000807C9C819F73892B8C8386818D8385817F
:102650008E838CE5B60143E050E010CCCB010E94A4
:10266000A908882309F079C0E114F10409F475C0C0
:10267000198281E56E010894C11CD11CB60141E0AC
:1026800050E098010E944100882309F067C08981C9
:1026900080614AC06115710509F45FC0FB01868D38
:1026A000978D892B09F459C0198281E56E01089430
:1026B000C11CD11CB60141E050E098010E944100CC
:1026C000882309F04BC0F7018781817090E055E0C5
:1026D000880F991F5A95E1F7807229812F7D23C0B9
:1026E00061157105D1F1FB01868D978D892BA9F1BB
:1026F000198281E56E010894C11CD11CB60141E02C
:1027000050E098010E944100882341F5F70187813C
:102710008695817090E046E0880F991F4A95E1F711
:10272000807429812F7B822B898381E5B60141E06A
:1027300050E098010E946C00882381F4C701B80121
:102740000E94E407882351F4C701B8010E94750D67
:1027500005C0C7010E94E40701C08FEF26960FB69F
:10276000F894DEBF0FBECDBFCF91DF911F910F91C7
:10277000FF90EF90DF90CF9008950F931F938C01FF
:10278000CB01FA01008CF18DE02DA081B181FB011C
:102790003196BF016F5F7F4FEA0FFB1F308120E052
:1027A0008A0F9B1FFC01808190E0282B392BF801B8
:1027B00031832083AB014F5F5F4FFD01E40FF51FB5
:1027C000308120E06A0F7B1FFB01808190E0282B85
:1027D000392BF801338322834F5F5F4FA40FB51F5E
:1027E00011969C91119780E02C9130E0822B932BD5
:1027F000958384831F910F910895CF92DF92EF927A
:10280000FF920F931F93CF93DF936C01EB017A013B
:10281000D8012C3809F44CC02D38A8F4203609F41E
:1028200065C0213638F4203209F4A5C0203409F0FF
:10283000AFC021C02438F9F0283809F4A0C02038EE
:1028400009F0A6C09CC02C3909F46EC02D3950F493
:10285000243909F44BC0283909F495C0203909F00E
:1028600097C089C0203C21F1203E09F45DC0203A88
:1028700009F08EC088C0688179815896ED91FC91ED
:10288000599722813381CB0106962817390708F41E
:1028900058C0F70180812AE0829FC00111248C0D6D
:1028A0009D1DAD010E94BD138881998106965CC073
:1028B000688179815896ED91FC91599722813381F5
:1028C000CB010C9628173907E0F1F70180812AE047
:1028D000829FC00111246A5F7F4F8C0D9D1DAD0149
:1028E0000E94BD13888199810C963EC068817981D0
:1028F0005896ED91FC91599722813381CB010E9628
:1029000028173907F0F0F70180812AE0829FC00183
:102910001124685F7F4F8C0D9D1DAD010E94BD137A
:10292000888199810E9620C0688179815896ED91B1
:10293000FC91599722813381CB014496281739079E
:1029400018F43983288324C0F70180812AE0829F0C
:10295000C0011124625F7F4F8C0D9D1DAD010E944F
:10296000BD1388819981449699838883F70180817A
:102970008F5F80830DC088819981089607C0888108
:102980009981069603C0888199810E9699838883E0
:10299000DF91CF911F910F91FF90EF90DF90CF903B
:1029A00008950F931F938C01CB01FA01008CF18DD8
:1029B000E02DA081B181FB013196BF016F5F7F4F98
:1029C000EA0FFB1F308120E08A0F9B1FFC018081F2
:1029D00090E0282B392BF80131832083AB014F5F26
:1029E0005F4FFD01E40FF51F308120E06A0F7B1F70
:1029F000FB01808190E0282B392BF801338322835F
:102A00004F5F5F4FA40FB51F11969C91119780E007
:102A10002C9130E0822B932B958384831F910F910F
:102A20000895CF92DF92EF92FF920F931F93CF936F
:102A3000DF936C01EB017A01D8012C3809F44BC00B
:102A40002D38A8F4203609F481C0213638F420321C
:102A500009F480C0203409F0ADC0A7C0243809F4BF
:102A6000A4C02838D9F0203809F0A4C017C02C39E8
:102A700009F44EC02D3950F4243909F467C02839BF
:102A800009F46CC0203909F095C064C0203C19F1EC
:102A9000203EF1F1203A09F08DC060C06881798153
:102AA0005896ED91FC91599722813381CB0106967E
:102AB0002817390708F45FC0F70180812AE0829F58
:102AC000C00111248C0D9D1DAD010E94D11488817F
:102AD0009981069663C0688179815896ED91FC9141
:102AE000599722813381CB010C962817390708F4B6
:102AF00042C0F70180812AE0829FC00111248C0D21
:102B00009D1DAD010E94D114888199810C9646C00B
:102B1000688179815896ED91FC9159972281338192
:102B2000CB0144962817390730F1F70180812AE05C
:102B3000829FC0011124685F7F4F8C0D9D1DAD01E8
:102B40000E94D11488819981449628C088819981F6
:102B50000E962EC08881998108962AC06881798155
:102B60005896ED91FC91599722813381CB010E96B5
:102B70002817390718F4398328831CC0F70180818E
:102B80002AE0829FC0011124685F7F4F8C0D9D1D3C
:102B9000AD010E94D114888199810E969983888312
:102BA000F70180818F5F808305C0888199810696B7
:102BB00099838883DF91CF911F910F91FF90EF90C0
:102BC000DF90CF9008959C01DA015896ED91FC9129
:102BD00059970190F081E02DE60FF71F8081F901F0
:102BE00080836F5F7F4F5896ED91FC9159970190CC
:102BF000F081E02DE60FF71F8081F90181836F5F7F
:102C00007F4F5896ED91FC9159970190F081E02DFE
:102C1000E60FF71F8081F90182836F5F7F4F58961F
:102C2000ED91FC9159970190F081E02DE60FF71F8F
:102C30008081F90183836F5F7F4F5896ED91FC91FE
:102C400059970190F081E02DE60FF71F8081F9017F
:102C500084836F5F7F4F5896ED91FC915997019057
:102C6000F081E02DE60FF71F8081F90185836F5F0A
:102C70007F4F5896ED91FC9159970190F081E02D8E
:102C8000E60FF71F8081F90186835896ED91FC913C
:102C900059970190F081E02DE60FF71F8181F9012E
:102CA00087830895CF92DF92EF92FF920F931F9345
:102CB000CF93DF936C01EB017A01D8012C3809F432
:102CC00091C02D38A8F4203609F447C0213630F4DD
:102CD000203229F1203409F08EC088C0243809F44C
:102CE00085C0283809F482C0203809F084C07EC02D
:102CF0002C3909F450C02D3940F4243971F12839A8
:102D000061F1203909F077C00AC0203C09F46AC09B
:102D1000203E09F440C0203A09F06DC01EC0688111
:102D200079815896ED91FC91599722813381CB019D
:102D3000089628173907E0F1F701808190E013E049
:102D4000880F991F1A95E1F78C0D9D1DAD010E940A
:102D5000E3158881998108963EC0688179815896EB
:102D6000ED91FC91599722813381CB010E96281762
:102D70003907F0F0F701808190E0F3E0880F991FA8
:102D8000FA95E1F78C0D9D1DAD010E94E315888138
:102D900099810E9620C0688179815896ED91FC91B9
:102DA000599722813381CB0144962817390718F4AB
:102DB0003983288320C0F701808190E0E3E0880F09
:102DC000991FEA95E1F78C0D9D1DAD010E94E31559
:102DD00088819981449699838883F70180818F5FE8
:102DE000808309C0888199810C9603C0888199816C
:102DF000069699838883DF91CF911F910F91FF9061
:102E0000EF90DF90CF900895DC01FB012D913C9174
:102E10001197008CF18DE02D42815381C9010296FA
:102E20008417950768F40190F081E02DE20FF31FFD
:102E30008081803829F48181882311F44D935C933B
:102E400008950F931F93CF93DF938C01FB01DC0157
:102E50002D913C911197C08DD18D8A819B81B901B3
:102E60006D5F7F4F8617970718F48D939C9317C05B
:102E7000E881F981E20FF31F208130E040E050E06B
:102E8000918180E0A0E0B0E0282B392B4A2B5B2B0E
:102E90002D873E874F87588BF80171836083DF91C0
:102EA000CF911F910F9108954F925F926F927F92F1
:102EB0008F929F92AF92BF92CF92DF92EF92FF924A
:102EC0000F931F93DF93CF9300D000D000D0CDB7E6
:102ED000DEB72C015B016A014115510509F4F4C00C
:102EE000DA015896ED91FC91599780819181892B57
:102EF00009F4EAC04114510409F4E6C01C821B82A3
:102F000019828581882309F05AC0818592859C8326
:102F10008B838681803251F4DB018C91282F30E045
:102F200043E0220F331F4A95E1F717C0803611F0B6
:102F3000803A21F4D5019C918EE005C0803E39F4A1
:102F4000DB019C9184E1989F9001112406C082814D
:102F500093819C838B8320E030E08281938179018F
:102F60008217930798F47C0111C0C401B6010E9436
:102F70000417D6015896ED91FC915997C201B401FE
:102F8000A301268186010E94521609C093E0892E72
:102F9000912C8C0E9D1E3E010894611C711C2B818E
:102FA0003C812E153F0508F38981F5018083D60108
:102FB0005896ED91FC9159973487238783C01A82E4
:102FC000838594859E838D8385E0E82EF12CEC0E1D
:102FD000FD1E02E0802E912C8C0E9D1E59C0F80122
:102FE000A081B181FD01E80FF91F20812C7FAC0188
:102FF0004F5F5F4F5E834D83283831F1293870F47D
:103000002834B9F1293428F4203429F12434C9F5BD
:103010001DC02038B1F12438A1F516C0243959F06B
:10302000253928F42C3871F0203959F504C0283995
:1030300011F02C3931F5C201B701A40186010E94BB
:10304000521621C00D9617C0079615C0C701B601CC
:103050000E94211718C04617570798F4A40FB51FF0
:103060008C91D80151968C934F5F5F4F5E834D8357
:103070000AC0CA0101966817790718F09E838D83EC
:1030800002C07E836D83F50190818A81981771F06B
:103090008D819E81D60158960D911C915997F8010A
:1030A000628173818617970708F499CF8A81D501C9
:1030B0008C93D6015896ED91FC9159978D819E8104
:1030C0009487838780E001C08FEF26960FB6F8942F
:1030D000DEBF0FBECDBFCF91DF911F910F91FF904B
:1030E000EF90DF90CF90BF90AF909F908F907F90A8
:1030F0006F905F904F9008954F925F926F927F9282
:103100008F929F92AF92BF92CF92DF92EF92FF92F7
:103110000F931F93DF93CF9300D000D000D0CDB793
:10312000DEB72C015B016A014115510509F4EEC0BF
:10313000DA015896ED91FC91599780819181892B04
:1031400009F4E4C01C821B8219828581882309F05E
:1031500058C0818592859C838B838681803821F439
:10316000DB019C9186E005C0803C39F4DB019C9139
:103170008CE0989F9001112412C0803A21F4DB0169
:103180009C918EE0F6CF803E21F4DB019C9184E19E
:10319000F0CF828193819C838B8320E030E0828119
:1031A000938179018217930798F47C0111C0C401BF
:1031B000B6010E940417D6015896ED91FC915997DB
:1031C000C201B401A301268186010E94111509C024
:1031D00073E0872E912C8C0E9D1E3E010894611C7D
:1031E000711C2B813C812E153F0508F38981F50167
:1031F0008083D6015896ED91FC91599732872187AB
:1032000083C01A82818592859E838D8365E0E62E38
:10321000F12CEC0EFD1E52E0852E912C8C0E9D1E85
:1032200059C0F801A081B181FD01E80FF91F20818B
:103230002C7FAC014F5F5F4F5E834D832838E9F0F0
:10324000293870F42834B9F1293428F4203429F1CC
:103250002434D9F51DC02038B1F12438B1F514C09B
:103260002439A1F0253928F42C3839F0203969F5B2
:103270000DC0283911F02C3941F5C201B701A40164
:1032800086010E94111521C0079617C0099615C026
:10329000C701B6010E94211718C04617570798F4B6
:1032A000A40FB51F8C91D80151968C934F5F5F4F3F
:1032B0005E834D830AC0CA0101966817790718F02A
:1032C0009E838D8302C07E836D83F50190818A8108
:1032D000981771F08D819E81D60158960D911C91A1
:1032E0005997F801628173818617970708F499CF7F
:1032F0008A81D5018C93D6015896ED91FC9159970E
:103300008D819E819287818780E001C08FEF269614
:103310000FB6F894DEBF0FBECDBFCF91DF911F91E6
:103320000F91FF90EF90DF90CF90BF90AF909F9064
:103330008F907F906F905F904F9008954F925F9223
:103340006F927F928F929F92AF92BF92CF92DF92B5
:10335000EF92FF920F931F93DF93CF9300D000D093
:1033600000D0CDB7DEB72C015B016A0141155105D4
:1033700009F4FEC0DA015896ED91FC915997309707
:1033800009F4F6C080819181892B09F4F1C01C8277
:103390001B8219828581882309F058C08781908516
:1033A0009C838B838681803421F4DB019C9186E0B1
:1033B00005C0803C39F4DB019C918CE0989F900122
:1033C000112412C0803621F4DB019C918EE0F6CFEF
:1033D000803E21F4DB019C9184E1F0CF82819381D6
:1033E0009C838B8320E030E0828193817901821776
:1033F000930798F47C0111C0C401B6010E94041720
:10340000D6015896ED91FC915997C201B401A301E0
:10341000268186010E94FD1309C0A3E08A2E912C0B
:103420008C0E9D1E3E010894611C711C2B813C81F9
:103430002E153F0508F38981F5018083D601589642
:10344000ED91FC9159973087278390C01A8287812C
:1034500090859E838D83F5E0EF2EF12CEC0EFD1E02
:10346000E2E08E2E912C8C0E9D1E66C0F801A0818C
:10347000B181FD01E60FF71F20812C7FAB014F5F6B
:103480005F4F5E834D83283861F1293890F42834EA
:1034900009F442C0293430F4203481F1243409F095
:1034A00046C027C0203809F440C0243809F03FC086
:1034B0000DC0243959F0253928F42C3839F0203939
:1034C000B1F50BC0283989F02C3989F5C201B70153
:1034D000A40186010E94FD132AC09B01275F3F4F74
:1034E0001EC09B01295F3F4F1AC09B01215F3F4FC8
:1034F00016C0C701B6010E94211719C04817590705
:10350000A0F4A40FB51F8C91D80151968C934F5FF6
:103510005F4F5E834D830BC09A012F5F3F4F821731
:10352000930718F03E832D8302C09E838D83F5019F
:1035300090818A81981771F06D817E81D6015896AD
:103540000D911C915997F801828193816817790731
:1035500008F48CCF8A81D5018C93D6015896ED91D1
:10356000FC9159978D819E819087878380E001C06F
:103570008FEF26960FB6F894DEBF0FBECDBFCF916A
:10358000DF911F910F91FF90EF90DF90CF90BF9050
:10359000AF909F908F907F906F905F904F90089525
:1035A00011B88DE080B9089584EA86BF06B607FE9B
:1035B000FDCF089584E986BF0895880F991F682B71
:1035C000792B63B984E886BF06B607FEFDCF089560
:1035D000089581B108951F920F920FB60F92112492
:1035E0008F9388B3809588BB8F910F900FBE0F90FB
:1035F0001F9018955F9BFECF8CB108955D9BFECF09
:103600008CB90895FC0104C05D9BFECF8CB9319646
:1036100080818823C9F7089501C08CB15F99FDCFDF
:10362000089590BD89B9599A88E18AB98EE880BD1C
:1036300008958CE090E00E94111BE0E6F0E004C0E9
:103640005D9BFECF8CB9319680818823C9F70895A0
:103650008EB582608EBD1DBC1CBC84E089BF789491
:103660000895FF920F931F93DF93CF93CDB7DEB7EB
:10367000AA970FB6F894DEBF0FBECDBF2091000011
:1036800088E68C871D86E0E0F0E0222311F0E1E07F
:10369000F0E0808191819EA38DA3E0E0F0E0222301
:1036A00011F0E1E0F0E08081918198A78FA38091F3
:1036B0000000909101009AA789A78E01055F1F4F16
:1036C000C8010E942C0A8DE0F82EF88E198E82E037
:1036D0008A8F85E18F8BC8010E940B0282E060E037
:1036E00070E0AE014F5F5F4F98010E942D0311B84B
:1036F000F0B884EA86BF06B607FEFDCF80ED83B939
:1037000084E886BF06B607FEFDCF88E183B984E86A
:1037100086BF06B607FEFDCF84EA86BF06B607FE63
:10372000FDCF81ED83B984E886BF06B607FEFDCFE5
:1037300084E986BF80E090E0AA960FB6F894DEBFD9
:103740000FBECDBFCF91DF911F910F91FF900895D4
:1037500097FB092E07260AD077FD04D00CD006D09F
:1037600000201AF4709561957F4F0895F6F79095B3
:1037700081959F4F0895AA1BBB1B51E107C0AA1F4B
:10378000BB1FA617B70710F0A61BB70B881F991F02
:103790005A95A9F780959095BC01CD010895F894AC
:0237A000FFCF59
:1037A20041542B554152543D393630302C322C3055
:1037B2000D0A0004040110204080020108080204DE
:0A37C20000000000000000000000FD
:00000001FF
