:100000000C942A000C943F000C943F000C943F0089
:100010000C943F000C943F000C943F000C943F0064
:100020000C943F000C9452000C943F000C943F0041
:100030000C943F000C943F000C943F000C943F0044
:100040000C943F000C943F000C943F000C943F0034
:100050000C943F0011241FBECFE5D8E0DEBFCDBF1A
:1000600010E0A0E6B0E0E0EEF1E002C005900D92F5
:10007000A63EB107D9F70E9498000C94EE000C94AC
:10008000000080E487B983E886B9089527B18770B6
:100090009070282B27B9369A369BFECF24B135B104
:1000A000C90108951F920F920FB60F9211248F93DA
:1000B00088B3809588BB8F910F900FBE0F901F90D3
:1000C00018955F9BFECF8CB108955D9BFECF8CB9D8
:1000D0000895FC0104C05D9BFECF8CB931968081F0
:1000E0008823C9F7089501C08CB15F99FDCF0895A9
:1000F00090BD89B9599A88E18AB98EE880BD089582
:100100008CE090E00E947800E0E6F0E004C05D9BA7
:10011000FECF8CB9319680818823C9F708958EB5BA
:1001200082608EBD1DBC1CBC84E089BF789408959C
:10013000CF93DF930E94800080E487B983E886B97B
:100140008FEF87BB18BA81E081BBC8EAD1E65F9B1D
:10015000FECF8CB1803379F480E090E00E944600BD
:1001600088BBCE010197F1F783E790E00E94690018
:1001700080E090E021C0813379F481E090E00E943A
:10018000460088BBCE010197F1F780E990E00E941C
:10019000690081E090E010C08233A9F482E090E031
:1001A0000E94460088BBCE010197F1F78BEA90E0F0
:1001B0000E94690082E090E00E9446000E9469006F
:1001C0008EE890E008C08A3009F4C1CF8D3009F480
:1001D000BECF86EC90E00E946900B9CFF894FFCFC3
:1001E00041542B554152543D393630302C322C304D
:1001F0000D0A0052656164205A20417869732041DC
:100200006363656C65726174696F6E2E0A000A0023
:1002100052656164205920417869732041636365A8
:100220006C65726174696F6E2E0A0052656164209C
:1002300058204178697320416363656C657261740D
:10024000696F6E2E0A00506C656173652073656C72
:1002500065637420612070726F706572206F7074B6
:06026000696F6E2E0A001A
:00000001FF
