:100000000C942A000C943F000C943F000C943F0089
:100010000C943F000C943F000C943F000C943F0064
:100020000C943F000C9441000C943F000C943F0052
:100030000C943F000C943F000C943F000C943F0044
:100040000C943F000C943F000C943F000C943F0034
:100050000C943F0011241FBECFE5D8E0DEBFCDBF1A
:1000600010E0A0E6B0E0E0E5F1E002C005900D92FE
:10007000AC3AB107D9F70E9487000C94A6000C9403
:1000800000001F920F920FB60F9211248F9388B326
:10009000809588BB8F910F900FBE0F901F90189581
:1000A0005F9BFECF8CB108955D9BFECF8CB9089508
:1000B000FC0104C05D9BFECF8CB931968081882302
:1000C000C9F7089501C08CB15F99FDCF089590BD27
:1000D00089B9599A88E18AB98EE880BD08958CE083
:1000E00090E00E946700E0E6F0E004C05D9BFECF78
:1000F0008CB9319680818823C9F708958EB58260C6
:100100008EBD1DBC1CBC84E089BF789408950E94FC
:100110006F008FEF87BB18BA81E081BB5F9BFECF7A
:100120008CB1813321F4C29A83E790E00CC0803314
:1001300021F4C2988FE790E006C08A3079F38D30C1
:1001400069F38CE890E00E945800E8CFF894FFCF64
:1001500041542B554152543D393630302C322C30DD
:100160000D0A004C4544206973206F6E2E0A004C26
:100170004544206973206F66662E0A00506C6561E5
:1001800073652073656C65637420612070726F7095
:0C0190006572206F7074696F6E2E0A009B
:00000001FF
