:100000000C942A000C943F000C943F000C943F0089
:100010000C943F000C943F000C943F000C943F0064
:100020000C943F000C945B000C943F000C943F0038
:100030000C943F000C943F000C943F000C943F0044
:100040000C943F000C943F000C943F000C943F0034
:100050000C943F0011241FBECFE5D8E0DEBFCDBF1A
:1000600010E0A0E6B0E0EEE7F2E002C005900D92ED
:10007000A63AB107D9F70E942A010C943D010C94CD
:10008000000080E687B984E886B90895982F882310
:1000900039F0813029F0823019F020E030E009C0D9
:1000A00087B1892B87B9369A369BFECF85B1282F29
:1000B00030E0C90108951F920F920FB60F921124DC
:1000C0008F9388B3809588BB8F910F900FBE0F9050
:1000D0001F9018955F9BFECF8CB108955D9BFECF5E
:1000E0008CB90895FC0104C05D9BFECF8CB931969C
:1000F00080818823C9F7089501C08CB15F99FDCF35
:10010000089590BD89B9599A88E18AB98EE880BD71
:1001100008958CE090E00E948100E0E6F0E004C0E9
:100120005D9BFECF8CB9319680818823C9F70895F5
:100130008EB582608EBD1DBC1CBC84E089BF7894E6
:1001400008951F93CF93DF93182F803309F519C0BB
:100150008CB15F99FDCF80E00E94460088BB369944
:10016000FECF5D9BFECF8CB983E890E00E947200C9
:10017000CE010197F1F75D991CB1CE010197F1F71E
:1001800002C0C8EAD1E6812F8153823010F745C002
:10019000813309F502C08CB102C0C8EAD1E65F998B
:1001A000FACF81E00E94460088BB3699FECF5D9B66
:1001B000FECF8CB983E890E00E947200CE010197D7
:1001C000F1F75D991CB1CE010197F1F7103329F1D8
:1001D000123329F722C0823319F519C08CB15F9907
:1001E000FDCF82E00E94460088BB3699FECF5D9B22
:1001F000FECF8CB983E890E00E947200CE01019797
:10020000F1F75D991CB1CE010197F1F702C0C8EA80
:10021000D1E6812F8053823010F7812F0E94140184
:10022000DF91CF911F910895982F892F80538330AC
:1002300028F4892F90E00E94A10008959A3031F0AF
:100240009D3021F085E890E00E9472005F9BFECF18
:100250009CB1EBCF0E94890080E687B984E886B91B
:100260005F9BFECF8CB19FEF97BB18BA91E091BB1B
:0E0270000E94140180E090E00895F894FFCF02
:10027E00426C7565746F6F746820496E69743A20AC
:10028E0041542B554152543D393630302C322C309E
:10029E000D0A000A00506C656173652073656C650C
:1002AE00637420612070726F706572206F70746954
:0602BE006F6E2E0A000025
:00000001FF
